:10046B0050617373776F726428317E3136293A008D
:10047B004F4B20210020202020202020006572726D
:0C048B006F72210063616E63656C2100DC
:10012D0012050B7BFF7A04796B7D017F0112049719
:10013D001200038F36E53660F7D3940A5037E53356
:10014D00C394045020AE34AF357C007D0A120237C3
:10015D008E348F35E53675F00A84E5F02535F535A5
:10016D00E43534F5340533751D04AB35AA347D0102
:10017D007F021204D8E536640B7044E53564CD700A
:10018D0004E53464077BFF70067A04797B80047A7A
:10019D000479887D017F02120497120542E4F5343B
:1001AD00F535F5337BFF7A0479807D017F021204EA
:1001BD0097751D04AB35AA347D017F021204D8E575
:1001CD0036640C600302013D7BFF7A04798F7D015B
:1001DD007F02120497120542E4F534F535F5337BB1
:1001ED00FF7A0479807D017F02120497751D04AB9F
:0D01FD0035AA347D017F021204D802013DB5
:0C0542007F177E987D46DDFEDEFADFF6B6
:01054E00228A
:0C054F007F137E147D82DDFEDEFADFF6F5
:01055B00227D
:06053300C2A58F80D2A7D3
:080539007F027EEFDEFEDFFC15
:010541002297
:0A055C00C2A6120533C2A70205393A
:1004BA00CFCDCFCECCCE1202497C007D0A120249A2
:0404CA00ED2430FFEE
:0A04CE00D2A6120533C2A7020539B9
:1004F500AE07BE0104ED148006BE0209ED243F449B
:0605050080FF12055C22DC
:10050B007F3812055C7F0C12055C7F0612055C7F41
:04051B000102055C78
:0A056600AC031204F5AF040204CE4A
:060497008B198A1A891B73
:10049D001204F5E4FDAB19AA1AA91B8D8275830010
:0C04AD0012020AFF60061204CE0D80E966
:0104B9002220
:0C0438007F0AEA24FFFDE434FFFC7E0094
:080444008E1E8F1F8C208D21FC
:10044C007F017E00E4FBEBC39521E5206480F8740A
:0E045C008098500AAC1EAD1F1202370B80E8CC
:01046A00226F
:0404D8008A1B8B1CD4
:1004DC001204F5AA1DEAD39400400D120438AC1B8B
:0804EC00AD1C1204BA1A80EDE8
:0104F40022E5
:10038D001204F5C3EA64809480400B7F2B1204CED7
:10039D008A278B28800E7F2D1204CEC3E49BF5286F
:1003AD00E49AF527AA26EAD39400400D120438AC3E
:0903BD0027AD281204BA1A80EDE4
:0103C6002214
:0403C7008A2B8B2CC6
:1003CB001204F5AA2DEAD3940040297F1012043AA7
:1003DB00AC2BAD2CCFCDCFCECCCE120249EF540FE0
:1003EB00FEC3940AEE5004243080022437FF12041B
:0403FB00CE1A80D1C5
:0103FF0022DB
:040400008A308B3182
:100404001204F5AA32EAD394004028EA24FFFDE45A
:1004140034FFFC7F027E00120444AC30AD31CFCDFA
:10042400CFCECCCE120249EF54012430FF1204CEB9
:030434001A80D259
:0104370022A2
:10051F0011083F065B4F666D7D077F6F777C395EF5
:03052F00797100DF
:10032A00EF14B40800505490033F75F003A4C5833A
:10033A0025F0C5837302035702035B02035F0203BE
:10034A006302036702036F02037702037FD2A4806A
:10035A000ED2A48012D2A48016D2A4801AC2A4D229
:10036A00A3D2A28016C2A4D2A3C2A2800EC2A4C2E1
:10037A00A3D2A28006C2A4C2A3C2A274082DF8E620
:03038A00F58022D9
:10000300E4F5197590FFC29320970E12054F2097C0
:100013000812054F75190180F520960E12054F2021
:10002300960812054F75190580F520950E12054F98
:1000330020950812054F75190980F520940E1205B5
:100043004F20940812054F75190D80F57590FFC266
:100053009220970E12054F20970812054F7519022B
:1000630080F520960E12054F20960812054F75193C
:100073000680F520950E12054F20950812054F7541
:10008300190A80F520940E12054F20940812054F8B
:1000930075190E80F57590FFC29120970E12054FCA
:1000A30020970812054F75190380F520960E120547
:1000B3004F20960812054F75190780F520950E12EB
:1000C300054F20950812054F75190B80F520940EE6
:1000D30012054F20940812054F75190F80F575907E
:1000E300FFC29020970E12054F20970812054F75F7
:1000F300190480F520960E12054F20960812054F1D
:1001030075190880F520950E12054F2095081205E4
:100113004F75190C80F520940E12054F2094081288
:09012300054F75191080F5AF19A4
:01012C0022B0
:0300000002029E5B
:0C029E00787FE4F6D8FD7581360202E599
:10020A00BB010CE58229F582E5833AF583E02250A9
:10021A0006E92582F8E622BBFE06E92582F8E222F3
:0D022A00E58229F582E5833AF583E493220D
:10023700EF8DF0A4A8F0CF8CF0A428CE8DF0A42EDB
:02024700FE2295
:10024900BC000BBE0029EF8DF084FFADF022E4CC99
:10025900F875F008EF2FFFEE33FEEC33FCEE9DEC62
:10026900984005FCEE9DFE0FD5F0E9E4CEFD22EDA8
:10027900F8F5F0EE8420D21CFEADF075F008EF2FF2
:10028900FFED33FD4007985006D5F0F222C398FDE3
:050299000FD5F0EA2280
:1002AA0002012DE493A3F8E493A34003F68001F23C
:1002BA0008DFF48029E493A3F85407240CC8C33355
:1002CA00C4540F4420C8834004F456800146F6DF24
:1002DA00E4800B010204081020408090051FE47E90
:1002EA00019360BCA3FF543F30E509541FFEE49319
:1002FA00A360010ECF54C025E060A840B8E493A3E0
:10030A00FAE493A3F8E493A3C8C582C8CAC583CA0A
:10031A00F0A3C8C582C8CAC583CADFE9DEE780BEC2
:0105320000C8
:00000001FF
