:1000A80075A0FE1200C81200628F0AE50A60F7B454
:1000B80001F4050BE50BC3940240EBE4F50B80E675
:03000B0002000EE2
:0B000E00C0E0C0D075D000C000C007EB
:10001900758C18758AFC0509E50970020508C394F1
:10002900F4E50894014029750800750900E50B708D
:100039000DAFA07801EF08800123D8FDF5A0E50BED
:10004900B4010DAFA07801EF08800103D8FDF5A038
:09005900D007D000D0D0D0E03275
:1000C8005389F0438901758A18758CFCC28DD28CCE
:0700D800D2A9D2AFC2B92288
:10006200E4F50C20B10D800320B10512010580F8E2
:10007200750C0120B00D800320B00512010580F837
:10008200750C0220B20D800320B20512010580F822
:10009200750C0320B30D800320B30512010580F80F
:0500A200750C04AF0C19
:0100A7002236
:0C00DF007F177E987D46DDFEDEFADFF61E
:0100EB0022F2
:0C00EC007F137E147D82DDFEDEFADFF65D
:0100F80022E5
:0A0105007FD77E2DDEFEDFFA00003A
:01010F0022CD
:030000000200F902
:0C00F900787FE4F6D8FD75810C0200A8A9
:00000001FF
