:0B047B004D61747269784B65793A009E
:10038E0012042A7BFF7A04797B7D017F011203B66A
:10039E001200038F33E53360F7FB7A00751D027D83
:0803AE00017F021203F780E851
:0C0461007F177E987D46DDFEDEFADFF698
:01046D00226C
:0C046E007F137E147D82DDFEDEFADFF6D7
:01047A00225F
:06045200C2A58F80D2A7B5
:080458007F027EEFDEFEDFFCF7
:010460002279
:0A048600C2A6120452C2A7020458D5
:1003D900CFCDCFCECCCE12016C7C007D0A12016C40
:0403E900ED2430FFD0
:0A03ED00D2A6120452C2A70204585F
:10041400AE07BE0104ED148006BE0209ED243F447C
:0604240080FF1204862295
:10042A007F381204867F0C1204867F061204867FA8
:04043A000102048631
:0A049000AC03120414AF040203EDE4
:0603B6008B198A1A891B55
:1003BC00120414E4FDAB19AA1AA91B8D82758300D3
:0C03CC0012012DFF60061203ED0D80E908
:0103D8002202
:0C035B007F0AEA24FFFDE434FFFC7E0072
:080367008E1E8F1F8C208D21DA
:10036F007F017E00E4FBEBC39521E5206480F874E8
:0E037F008098500AAC1EAD1F12015A0B80E888
:01038D00224D
:0403F7008A1B8B1CB6
:1003FB00120414AA1DEAD39400400D12035BAC1B2C
:08040B00AD1C1203D91A80EDAB
:0104130022C6
:1002B000120414C3EA64809480400B7F2B1203ED78
:1002C0008A278B28800E7F2D1203EDC3E49BF5282F
:1002D000E49AF527AA26EAD39400400D12035BACFA
:0902E00027AD281203D91A80EDA4
:0102E90022F2
:0402EA008A2B8B2CA4
:1002EE00120414AA2DEAD3940040297F1012035D44
:1002FE00AC2BAD2CCFCDCFCECCCE12016CEF540F9C
:10030E00FEC3940AEE5004243080022437FF1203F9
:04031E00ED1A80D183
:0103220022B8
:040323008A308B3160
:10032700120414AA32EAD394004028EA24FFFDE419
:1003370034FFFC7F027E00120367AC30AD31CFCDB6
:10034700CFCECCCE12016CEF54012430FF1203ED57
:030357001A80D237
:01035A002280
:10043E0011083F065B4F666D7D077F6F777C395ED7
:03044E00797100C1
:10024D00EF14B40800505490026275F003A4C583F6
:10025D0025F0C5837302027A02027E020282020237
:10026D008602028A02029202029A0202A2D2A4809D
:10027D000ED2A48012D2A48016D2A4801AC2A4D207
:10028D00A3D2A28016C2A4D2A3C2A2800EC2A4C2BF
:10029D00A3D2A28006C2A4C2A3C2A274082DF8E6FE
:0302AD00F58022B7
:10000300E4F5197590FFC29320970E12046E2097A2
:100013000812046E75190180F520960E12046E20E5
:10002300960812046E75190580F520950E12046E5C
:1000330020950812046E75190980F520940E120498
:100043006E20940812046E75190D80F57590FFC229
:100053009220970E12046E20970812046E751902EF
:1000630080F520960E12046E20960812046E751900
:100073000680F520950E12046E20950812046E7505
:10008300190A80F520940E12046E20940812046E4F
:1000930075190E80F57590FFC29120970E12046EAC
:1000A30020970812046E75190380F520960E12042A
:1000B3006E20960812046E75190780F520950E12AE
:1000C300046E20950812046E75190B80F520940EAA
:1000D30012046E20940812046E75190F80F5759042
:1000E300FFC29020970E12046E20970812046E75BB
:1000F300190480F520960E12046E20960812046EE1
:1001030075190880F520950E12046E2095081204C7
:100113006E75190C80F520940E12046E209408124B
:09012300046E75191080F5AF1986
:01012C0022B0
:030000000201C139
:0C01C100787FE4F6D8FD75813302020857
:10012D00BB010CE58229F582E5833AF583E0225087
:10013D0006E92582F8E622BBFE06E92582F8E222D1
:0D014D00E58229F582E5833AF583E49322EB
:10015A00EF8DF0A4A8F0CF8CF0A428CE8DF0A42EB9
:02016A00FE2273
:10016C00BC000BBE0029EF8DF084FFADF022E4CC77
:10017C00F875F008EF2FFFEE33FEEC33FCEE9DEC40
:10018C00984005FCEE9DFE0FD5F0E9E4CEFD22ED86
:10019C00F8F5F0EE8420D21CFEADF075F008EF2FD0
:1001AC00FFED33FD4007985006D5F0F222C398FDC1
:0501BC000FD5F0EA225E
:1001CD0002038EE493A3F8E493A34003F68001F2B7
:1001DD0008DFF48029E493A3F85407240CC8C33333
:1001ED00C4540F4420C8834004F456800146F6DF02
:1001FD00E4800B010204081020408090043EE47E50
:10020D00019360BCA3FF543F30E509541FFEE493F6
:10021D00A360010ECF54C025E060A840B8E493A3BD
:10022D00FAE493A3F8E493A3C8C582C8CAC583CAE8
:10023D00F0A3C8C582C8CAC583CADFE9DEE780BEA0
:0104510000AA
:00000001FF
